{
  "_format": "hh-sol-artifact-1",
  "contractName": "CircularEconomy",
  "sourceName": "contracts/CircularEconomy.sol",
  "abi": [
    {
      "inputs": [
        {
          "internalType": "address",
          "name": "_resourcesAddress",
          "type": "address"
        },
        {
          "internalType": "address",
          "name": "_buildingsAddress",
          "type": "address"
        },
        {
          "internalType": "address",
          "name": "_equipmentAddress",
          "type": "address"
        }
      ],
      "stateMutability": "nonpayable",
      "type": "constructor"
    },
    {
      "inputs": [],
      "name": "buildingsAddress",
      "outputs": [
        {
          "internalType": "address",
          "name": "",
          "type": "address"
        }
      ],
      "stateMutability": "view",
      "type": "function"
    },
    {
      "inputs": [],
      "name": "equipmentAddress",
      "outputs": [
        {
          "internalType": "address",
          "name": "",
          "type": "address"
        }
      ],
      "stateMutability": "view",
      "type": "function"
    },
    {
      "inputs": [
        {
          "internalType": "address",
          "name": "player",
          "type": "address"
        }
      ],
      "name": "getScores",
      "outputs": [
        {
          "internalType": "uint256",
          "name": "developmentScore",
          "type": "uint256"
        },
        {
          "internalType": "uint256",
          "name": "sustainabilityScore",
          "type": "uint256"
        }
      ],
      "stateMutability": "view",
      "type": "function"
    },
    {
      "inputs": [],
      "name": "name",
      "outputs": [
        {
          "internalType": "string",
          "name": "",
          "type": "string"
        }
      ],
      "stateMutability": "view",
      "type": "function"
    },
    {
      "inputs": [],
      "name": "newGame",
      "outputs": [
        {
          "internalType": "address",
          "name": "",
          "type": "address"
        }
      ],
      "stateMutability": "nonpayable",
      "type": "function"
    },
    {
      "inputs": [
        {
          "internalType": "address",
          "name": "",
          "type": "address"
        }
      ],
      "name": "playerToGame",
      "outputs": [
        {
          "internalType": "address",
          "name": "",
          "type": "address"
        }
      ],
      "stateMutability": "view",
      "type": "function"
    },
    {
      "inputs": [],
      "name": "resourcesAddress",
      "outputs": [
        {
          "internalType": "address",
          "name": "",
          "type": "address"
        }
      ],
      "stateMutability": "view",
      "type": "function"
    }
  ],
  "bytecode": "0x60c0604052600f60809081526e43697263756c617245636f6e6f6d7960881b60a05260009061002e908261013b565b5034801561003b57600080fd5b506040516109de3803806109de83398101604081905261005a91610216565b600180546001600160a01b039485166001600160a01b031991821617909155600280549385169382169390931790925560038054919093169116179055610259565b634e487b7160e01b600052604160045260246000fd5b600181811c908216806100c657607f821691505b6020821081036100e657634e487b7160e01b600052602260045260246000fd5b50919050565b601f82111561013657600081815260208120601f850160051c810160208610156101135750805b601f850160051c820191505b818110156101325782815560010161011f565b5050505b505050565b81516001600160401b038111156101545761015461009c565b6101688161016284546100b2565b846100ec565b602080601f83116001811461019d57600084156101855750858301515b600019600386901b1c1916600185901b178555610132565b600085815260208120601f198616915b828110156101cc578886015182559484019460019091019084016101ad565b50858210156101ea5787850151600019600388901b60f8161c191681555b5050505050600190811b01905550565b80516001600160a01b038116811461021157600080fd5b919050565b60008060006060848603121561022b57600080fd5b610234846101fa565b9250610242602085016101fa565b9150610250604085016101fa565b90509250925092565b610776806102686000396000f3fe608060405234801561001057600080fd5b506004361061007d5760003560e01c80639e6ac26d1161005b5780639e6ac26d146100d3578063c5c2e2e6146100e6578063f451568d14610111578063fb4d50de1461012457600080fd5b806306fdde03146100825780637d03f5f3146100a05780638b33a41e146100c0575b600080fd5b61008a61014d565b604051610097919061028a565b60405180910390f35b6100a86101db565b6040516001600160a01b039091168152602001610097565b6003546100a8906001600160a01b031681565b6002546100a8906001600160a01b031681565b6100fc6100f43660046102d8565b600080915091565b60408051928352602083019190915201610097565b6001546100a8906001600160a01b031681565b6100a86101323660046102d8565b6004602052600090815260409020546001600160a01b031681565b6000805461015a90610308565b80601f016020809104026020016040519081016040528092919081815260200182805461018690610308565b80156101d35780601f106101a8576101008083540402835291602001916101d3565b820191906000526020600020905b8154815290600101906020018083116101b657829003601f168201915b505050505081565b60015460025460035460405160009384936001600160a01b039182169390821692911690339061020a9061027d565b6001600160a01b039485168152928416602084015290831660408301529091166060820152608001604051809103906000f08015801561024e573d6000803e3d6000fd5b5033600090815260046020526040902080546001600160a01b0319166001600160a01b03831617905592915050565b6103fe8061034383390190565b600060208083528351808285015260005b818110156102b75785810183015185820160400152820161029b565b506000604082860101526040601f19601f8301168501019250505092915050565b6000602082840312156102ea57600080fd5b81356001600160a01b038116811461030157600080fd5b9392505050565b600181811c9082168061031c57607f821691505b60208210810361033c57634e487b7160e01b600052602260045260246000fd5b5091905056fe608060405234801561001057600080fd5b506040516103fe3803806103fe83398101604081905261002f9161021b565b600280546001600160a01b038087166001600160a01b0319928316179092556003805486841690831617905560048054858416908316179055600080549284169290911691909117815560015561008461008d565b50505050610288565b600254604051633aa39ff160e01b8152306004820152600160248201819052606460448301819052909290916001600160a01b0390911690633aa39ff19083016020604051808303816000875af11580156100ec573d6000803e3d6000fd5b505050506040513d601f19601f82011682018060405250810190610110919061026f565b50600480546040516324b155f560e11b81523092810192909252600160248301819052600560448401819052909290916001600160a01b031690634962abea90606401600060405180830381600087803b15801561016d57600080fd5b505af1158015610181573d6000803e3d6000fd5b5050600354604051637aa4114b60e11b815230600482015260016024820181905260056044830181905290945092506001600160a01b039091169063f548229690606401600060405180830381600087803b1580156101df57600080fd5b505af11580156101f3573d6000803e3d6000fd5b50505050505050505050565b80516001600160a01b038116811461021657600080fd5b919050565b6000806000806080858703121561023157600080fd5b61023a856101ff565b9350610248602086016101ff565b9250610256604086016101ff565b9150610264606086016101ff565b905092959194509250565b60006020828403121561028157600080fd5b5051919050565b610167806102976000396000f3fe608060405234801561001057600080fd5b50600436106100625760003560e01c8063119f0ef8146100675780631ba5eec01461009757806348db5f89146100a15780638b299903146100b4578063a8b68376146100cb578063d53ae2ff146100de575b600080fd5b60045461007a906001600160a01b031681565b6040516001600160a01b0390911681526020015b60405180910390f35b61009f6100f1565b005b60005461007a906001600160a01b031681565b6100bd60015481565b60405190815260200161008e565b60035461007a906001600160a01b031681565b60025461007a906001600160a01b031681565b6001806000828254610103919061010a565b9091555050565b8082018082111561012b57634e487b7160e01b600052601160045260246000fd5b9291505056fea264697066735822122019230e008daa4dd81c6fe5b86014c75eaeaf9dbd7c2b2da1687a601324adf9ed64736f6c63430008120033a2646970667358221220ec336406debaf6137fd8d627620ce2f072d80c2adc56a5bb88f4bea28a8ea3fc64736f6c63430008120033",
  "linkReferences": {},
  "deployedLinkReferences": {}
}