{
  "_format": "hh-sol-artifact-1",
  "contractName": "Resources",
  "sourceName": "contracts/Resources.sol",
  "abi": [
    {
      "inputs": [],
      "stateMutability": "nonpayable",
      "type": "constructor"
    },
    {
      "anonymous": false,
      "inputs": [
        {
          "indexed": true,
          "internalType": "address",
          "name": "account",
          "type": "address"
        },
        {
          "indexed": true,
          "internalType": "address",
          "name": "operator",
          "type": "address"
        },
        {
          "indexed": false,
          "internalType": "bool",
          "name": "approved",
          "type": "bool"
        }
      ],
      "name": "ApprovalForAll",
      "type": "event"
    },
    {
      "anonymous": false,
      "inputs": [
        {
          "indexed": true,
          "internalType": "address",
          "name": "operator",
          "type": "address"
        },
        {
          "indexed": true,
          "internalType": "address",
          "name": "from",
          "type": "address"
        },
        {
          "indexed": true,
          "internalType": "address",
          "name": "to",
          "type": "address"
        },
        {
          "indexed": false,
          "internalType": "uint256[]",
          "name": "ids",
          "type": "uint256[]"
        },
        {
          "indexed": false,
          "internalType": "uint256[]",
          "name": "values",
          "type": "uint256[]"
        }
      ],
      "name": "TransferBatch",
      "type": "event"
    },
    {
      "anonymous": false,
      "inputs": [
        {
          "indexed": true,
          "internalType": "address",
          "name": "operator",
          "type": "address"
        },
        {
          "indexed": true,
          "internalType": "address",
          "name": "from",
          "type": "address"
        },
        {
          "indexed": true,
          "internalType": "address",
          "name": "to",
          "type": "address"
        },
        {
          "indexed": false,
          "internalType": "uint256",
          "name": "id",
          "type": "uint256"
        },
        {
          "indexed": false,
          "internalType": "uint256",
          "name": "value",
          "type": "uint256"
        }
      ],
      "name": "TransferSingle",
      "type": "event"
    },
    {
      "anonymous": false,
      "inputs": [
        {
          "indexed": false,
          "internalType": "string",
          "name": "value",
          "type": "string"
        },
        {
          "indexed": true,
          "internalType": "uint256",
          "name": "id",
          "type": "uint256"
        }
      ],
      "name": "URI",
      "type": "event"
    },
    {
      "inputs": [
        {
          "internalType": "address",
          "name": "account",
          "type": "address"
        },
        {
          "internalType": "uint256",
          "name": "id",
          "type": "uint256"
        }
      ],
      "name": "balanceOf",
      "outputs": [
        {
          "internalType": "uint256",
          "name": "",
          "type": "uint256"
        }
      ],
      "stateMutability": "view",
      "type": "function"
    },
    {
      "inputs": [
        {
          "internalType": "address[]",
          "name": "accounts",
          "type": "address[]"
        },
        {
          "internalType": "uint256[]",
          "name": "ids",
          "type": "uint256[]"
        }
      ],
      "name": "balanceOfBatch",
      "outputs": [
        {
          "internalType": "uint256[]",
          "name": "",
          "type": "uint256[]"
        }
      ],
      "stateMutability": "view",
      "type": "function"
    },
    {
      "inputs": [
        {
          "internalType": "address",
          "name": "account",
          "type": "address"
        },
        {
          "internalType": "address",
          "name": "operator",
          "type": "address"
        }
      ],
      "name": "isApprovedForAll",
      "outputs": [
        {
          "internalType": "bool",
          "name": "",
          "type": "bool"
        }
      ],
      "stateMutability": "view",
      "type": "function"
    },
    {
      "inputs": [
        {
          "internalType": "address",
          "name": "game",
          "type": "address"
        },
        {
          "internalType": "uint256",
          "name": "tokenId",
          "type": "uint256"
        },
        {
          "internalType": "uint256",
          "name": "amount",
          "type": "uint256"
        }
      ],
      "name": "mintResource",
      "outputs": [
        {
          "internalType": "uint256",
          "name": "",
          "type": "uint256"
        }
      ],
      "stateMutability": "nonpayable",
      "type": "function"
    },
    {
      "inputs": [
        {
          "internalType": "uint256",
          "name": "",
          "type": "uint256"
        }
      ],
      "name": "resources",
      "outputs": [
        {
          "internalType": "uint256",
          "name": "id",
          "type": "uint256"
        },
        {
          "internalType": "uint256",
          "name": "mintAmount",
          "type": "uint256"
        },
        {
          "internalType": "address",
          "name": "originContract",
          "type": "address"
        }
      ],
      "stateMutability": "view",
      "type": "function"
    },
    {
      "inputs": [
        {
          "internalType": "address",
          "name": "from",
          "type": "address"
        },
        {
          "internalType": "address",
          "name": "to",
          "type": "address"
        },
        {
          "internalType": "uint256[]",
          "name": "ids",
          "type": "uint256[]"
        },
        {
          "internalType": "uint256[]",
          "name": "amounts",
          "type": "uint256[]"
        },
        {
          "internalType": "bytes",
          "name": "data",
          "type": "bytes"
        }
      ],
      "name": "safeBatchTransferFrom",
      "outputs": [],
      "stateMutability": "nonpayable",
      "type": "function"
    },
    {
      "inputs": [
        {
          "internalType": "address",
          "name": "from",
          "type": "address"
        },
        {
          "internalType": "address",
          "name": "to",
          "type": "address"
        },
        {
          "internalType": "uint256",
          "name": "id",
          "type": "uint256"
        },
        {
          "internalType": "uint256",
          "name": "amount",
          "type": "uint256"
        },
        {
          "internalType": "bytes",
          "name": "data",
          "type": "bytes"
        }
      ],
      "name": "safeTransferFrom",
      "outputs": [],
      "stateMutability": "nonpayable",
      "type": "function"
    },
    {
      "inputs": [
        {
          "internalType": "address",
          "name": "operator",
          "type": "address"
        },
        {
          "internalType": "bool",
          "name": "approved",
          "type": "bool"
        }
      ],
      "name": "setApprovalForAll",
      "outputs": [],
      "stateMutability": "nonpayable",
      "type": "function"
    },
    {
      "inputs": [
        {
          "internalType": "bytes4",
          "name": "interfaceId",
          "type": "bytes4"
        }
      ],
      "name": "supportsInterface",
      "outputs": [
        {
          "internalType": "bool",
          "name": "",
          "type": "bool"
        }
      ],
      "stateMutability": "view",
      "type": "function"
    },
    {
      "inputs": [
        {
          "internalType": "uint256",
          "name": "",
          "type": "uint256"
        }
      ],
      "name": "uri",
      "outputs": [
        {
          "internalType": "string",
          "name": "",
          "type": "string"
        }
      ],
      "stateMutability": "view",
      "type": "function"
    }
  ],
  "bytecode": "0x60806040523480156200001157600080fd5b506040805180820190915260098152685265736f757263657360b81b60208201526200003d8162000044565b50620001c7565b6002620000528282620000fb565b5050565b634e487b7160e01b600052604160045260246000fd5b600181811c908216806200008157607f821691505b602082108103620000a257634e487b7160e01b600052602260045260246000fd5b50919050565b601f821115620000f657600081815260208120601f850160051c81016020861015620000d15750805b601f850160051c820191505b81811015620000f257828155600101620000dd565b5050505b505050565b81516001600160401b0381111562000117576200011762000056565b6200012f816200012884546200006c565b84620000a8565b602080601f8311600181146200016757600084156200014e5750858301515b600019600386901b1c1916600185901b178555620000f2565b600085815260208120601f198616915b82811015620001985788860151825594840194600190910190840162000177565b5085821015620001b75787850151600019600388901b60f8161c191681555b5050505050600190811b01905550565b61155d80620001d76000396000f3fe608060405234801561001057600080fd5b506004361061009d5760003560e01c80633aa39ff1116100665780633aa39ff11461017c5780634e1273f41461018f578063a22cb465146101af578063e985e9c5146101c2578063f242432a146101fe57600080fd5b8062fdd58e146100a257806301ffc9a7146100c85780630e89341c146100eb578063244d6daa1461010b5780632eb2c2d614610167575b600080fd5b6100b56100b0366004610cf4565b610211565b6040519081526020015b60405180910390f35b6100db6100d6366004610d37565b6102aa565b60405190151581526020016100bf565b6100fe6100f9366004610d54565b6102fa565b6040516100bf9190610db3565b610143610119366004610d54565b6004602052600090815260409020805460018201546002909201549091906001600160a01b031683565b6040805193845260208401929092526001600160a01b0316908201526060016100bf565b61017a610175366004610f12565b61038e565b005b6100b561018a366004610fbc565b6103da565b6101a261019d366004610fef565b6103fe565b6040516100bf91906110f5565b61017a6101bd366004611108565b610528565b6100db6101d0366004611144565b6001600160a01b03918216600090815260016020908152604080832093909416825291909152205460ff1690565b61017a61020c366004611177565b610537565b60006001600160a01b0383166102815760405162461bcd60e51b815260206004820152602a60248201527f455243313135353a2061646472657373207a65726f206973206e6f742061207660448201526930b634b21037bbb732b960b11b60648201526084015b60405180910390fd5b506000818152602081815260408083206001600160a01b03861684529091529020545b92915050565b60006001600160e01b03198216636cdb3d1360e11b14806102db57506001600160e01b031982166303a24d0760e21b145b806102a457506301ffc9a760e01b6001600160e01b03198316146102a4565b606060028054610309906111dc565b80601f0160208091040260200160405190810160405280929190818152602001828054610335906111dc565b80156103825780601f1061035757610100808354040283529160200191610382565b820191906000526020600020905b81548152906001019060200180831161036557829003601f168201915b50505050509050919050565b6001600160a01b0385163314806103aa57506103aa85336101d0565b6103c65760405162461bcd60e51b815260040161027890611216565b6103d3858585858561057c565b5050505050565b60006103f784848460405180602001604052806000815250610759565b9392505050565b606081518351146104635760405162461bcd60e51b815260206004820152602960248201527f455243313135353a206163636f756e747320616e6420696473206c656e677468604482015268040dad2e6dac2e8c6d60bb1b6064820152608401610278565b6000835167ffffffffffffffff81111561047f5761047f610dc6565b6040519080825280602002602001820160405280156104a8578160200160208202803683370190505b50905060005b8451811015610520576104f38582815181106104cc576104cc611264565b60200260200101518583815181106104e6576104e6611264565b6020026020010151610211565b82828151811061050557610505611264565b602090810291909101015261051981611290565b90506104ae565b509392505050565b61053333838361086d565b5050565b6001600160a01b038516331480610553575061055385336101d0565b61056f5760405162461bcd60e51b815260040161027890611216565b6103d3858585858561094d565b81518351146105de5760405162461bcd60e51b815260206004820152602860248201527f455243313135353a2069647320616e6420616d6f756e7473206c656e677468206044820152670dad2e6dac2e8c6d60c31b6064820152608401610278565b6001600160a01b0384166106045760405162461bcd60e51b8152600401610278906112a9565b3360005b84518110156106eb57600085828151811061062557610625611264565b60200260200101519050600085838151811061064357610643611264565b602090810291909101810151600084815280835260408082206001600160a01b038e1683529093529190912054909150818110156106935760405162461bcd60e51b8152600401610278906112ee565b6000838152602081815260408083206001600160a01b038e8116855292528083208585039055908b168252812080548492906106d0908490611338565b92505081905550505050806106e490611290565b9050610608565b50846001600160a01b0316866001600160a01b0316826001600160a01b03167f4a39dc06d4c0dbc64b70af90fd698a233a518aa5d07e595d983b8c0526c8f7fb878760405161073b92919061134b565b60405180910390a4610751818787878787610a77565b505050505050565b6001600160a01b0384166107b95760405162461bcd60e51b815260206004820152602160248201527f455243313135353a206d696e7420746f20746865207a65726f206164647265736044820152607360f81b6064820152608401610278565b3360006107c585610bd2565b905060006107d285610bd2565b90506000868152602081815260408083206001600160a01b038b16845290915281208054879290610804908490611338565b909155505060408051878152602081018790526001600160a01b03808a1692600092918716917fc3d58168c5ae7397731d063d5bbf3d657854427343f4c083240f7aacaa2d0f62910160405180910390a461086483600089898989610c1d565b50505050505050565b816001600160a01b0316836001600160a01b0316036108e05760405162461bcd60e51b815260206004820152602960248201527f455243313135353a2073657474696e6720617070726f76616c20737461747573604482015268103337b91039b2b63360b91b6064820152608401610278565b6001600160a01b03838116600081815260016020908152604080832094871680845294825291829020805460ff191686151590811790915591519182527f17307eab39ab6107e8899845ad3d59bd9653f200f220920489ca2b5937696c31910160405180910390a3505050565b6001600160a01b0384166109735760405162461bcd60e51b8152600401610278906112a9565b33600061097f85610bd2565b9050600061098c85610bd2565b90506000868152602081815260408083206001600160a01b038c168452909152902054858110156109cf5760405162461bcd60e51b8152600401610278906112ee565b6000878152602081815260408083206001600160a01b038d8116855292528083208985039055908a16825281208054889290610a0c908490611338565b909155505060408051888152602081018890526001600160a01b03808b16928c821692918816917fc3d58168c5ae7397731d063d5bbf3d657854427343f4c083240f7aacaa2d0f62910160405180910390a4610a6c848a8a8a8a8a610c1d565b505050505050505050565b6001600160a01b0384163b156107515760405163bc197c8160e01b81526001600160a01b0385169063bc197c8190610abb9089908990889088908890600401611379565b6020604051808303816000875af1925050508015610af6575060408051601f3d908101601f19168201909252610af3918101906113d7565b60015b610ba257610b026113f4565b806308c379a003610b3b5750610b16611410565b80610b215750610b3d565b8060405162461bcd60e51b81526004016102789190610db3565b505b60405162461bcd60e51b815260206004820152603460248201527f455243313135353a207472616e7366657220746f206e6f6e2d455243313135356044820152732932b1b2b4bb32b91034b6b83632b6b2b73a32b960611b6064820152608401610278565b6001600160e01b0319811663bc197c8160e01b146108645760405162461bcd60e51b81526004016102789061149a565b60408051600180825281830190925260609160009190602080830190803683370190505090508281600081518110610c0c57610c0c611264565b602090810291909101015292915050565b6001600160a01b0384163b156107515760405163f23a6e6160e01b81526001600160a01b0385169063f23a6e6190610c6190899089908890889088906004016114e2565b6020604051808303816000875af1925050508015610c9c575060408051601f3d908101601f19168201909252610c99918101906113d7565b60015b610ca857610b026113f4565b6001600160e01b0319811663f23a6e6160e01b146108645760405162461bcd60e51b81526004016102789061149a565b80356001600160a01b0381168114610cef57600080fd5b919050565b60008060408385031215610d0757600080fd5b610d1083610cd8565b946020939093013593505050565b6001600160e01b031981168114610d3457600080fd5b50565b600060208284031215610d4957600080fd5b81356103f781610d1e565b600060208284031215610d6657600080fd5b5035919050565b6000815180845260005b81811015610d9357602081850181015186830182015201610d77565b506000602082860101526020601f19601f83011685010191505092915050565b6020815260006103f76020830184610d6d565b634e487b7160e01b600052604160045260246000fd5b601f8201601f1916810167ffffffffffffffff81118282101715610e0257610e02610dc6565b6040525050565b600067ffffffffffffffff821115610e2357610e23610dc6565b5060051b60200190565b600082601f830112610e3e57600080fd5b81356020610e4b82610e09565b604051610e588282610ddc565b83815260059390931b8501820192828101915086841115610e7857600080fd5b8286015b84811015610e935780358352918301918301610e7c565b509695505050505050565b600082601f830112610eaf57600080fd5b813567ffffffffffffffff811115610ec957610ec9610dc6565b604051610ee0601f8301601f191660200182610ddc565b818152846020838601011115610ef557600080fd5b816020850160208301376000918101602001919091529392505050565b600080600080600060a08688031215610f2a57600080fd5b610f3386610cd8565b9450610f4160208701610cd8565b9350604086013567ffffffffffffffff80821115610f5e57600080fd5b610f6a89838a01610e2d565b94506060880135915080821115610f8057600080fd5b610f8c89838a01610e2d565b93506080880135915080821115610fa257600080fd5b50610faf88828901610e9e565b9150509295509295909350565b600080600060608486031215610fd157600080fd5b610fda84610cd8565b95602085013595506040909401359392505050565b6000806040838503121561100257600080fd5b823567ffffffffffffffff8082111561101a57600080fd5b818501915085601f83011261102e57600080fd5b8135602061103b82610e09565b6040516110488282610ddc565b83815260059390931b850182019282810191508984111561106857600080fd5b948201945b8386101561108d5761107e86610cd8565b8252948201949082019061106d565b965050860135925050808211156110a357600080fd5b506110b085828601610e2d565b9150509250929050565b600081518084526020808501945080840160005b838110156110ea578151875295820195908201906001016110ce565b509495945050505050565b6020815260006103f760208301846110ba565b6000806040838503121561111b57600080fd5b61112483610cd8565b91506020830135801515811461113957600080fd5b809150509250929050565b6000806040838503121561115757600080fd5b61116083610cd8565b915061116e60208401610cd8565b90509250929050565b600080600080600060a0868803121561118f57600080fd5b61119886610cd8565b94506111a660208701610cd8565b93506040860135925060608601359150608086013567ffffffffffffffff8111156111d057600080fd5b610faf88828901610e9e565b600181811c908216806111f057607f821691505b60208210810361121057634e487b7160e01b600052602260045260246000fd5b50919050565b6020808252602e908201527f455243313135353a2063616c6c6572206973206e6f7420746f6b656e206f776e60408201526d195c881bdc88185c1c1c9bdd995960921b606082015260800190565b634e487b7160e01b600052603260045260246000fd5b634e487b7160e01b600052601160045260246000fd5b6000600182016112a2576112a261127a565b5060010190565b60208082526025908201527f455243313135353a207472616e7366657220746f20746865207a65726f206164604082015264647265737360d81b606082015260800190565b6020808252602a908201527f455243313135353a20696e73756666696369656e742062616c616e636520666f60408201526939103a3930b739b332b960b11b606082015260800190565b808201808211156102a4576102a461127a565b60408152600061135e60408301856110ba565b828103602084015261137081856110ba565b95945050505050565b6001600160a01b0386811682528516602082015260a0604082018190526000906113a5908301866110ba565b82810360608401526113b781866110ba565b905082810360808401526113cb8185610d6d565b98975050505050505050565b6000602082840312156113e957600080fd5b81516103f781610d1e565b600060033d111561140d5760046000803e5060005160e01c5b90565b600060443d101561141e5790565b6040516003193d81016004833e81513d67ffffffffffffffff816024840111818411171561144e57505050505090565b82850191508151818111156114665750505050505090565b843d87010160208285010111156114805750505050505090565b61148f60208286010187610ddc565b509095945050505050565b60208082526028908201527f455243313135353a204552433131353552656365697665722072656a656374656040820152676420746f6b656e7360c01b606082015260800190565b6001600160a01b03868116825285166020820152604081018490526060810183905260a06080820181905260009061151c90830184610d6d565b97965050505050505056fea264697066735822122053bbb72e0296ae6e9a0f029e22e6343d3db77e4e59579a2b0575d29a6c47ea6d64736f6c63430008120033",
  "linkReferences": {},
  "deployedLinkReferences": {}
}