{
  "_format": "hh-sol-artifact-1",
  "contractName": "Game",
  "sourceName": "contracts/Game.sol",
  "abi": [
    {
      "inputs": [
        {
          "internalType": "address",
          "name": "resourcesAddress",
          "type": "address"
        },
        {
          "internalType": "address",
          "name": "buildingsAddress",
          "type": "address"
        },
        {
          "internalType": "address",
          "name": "equipmentAddress",
          "type": "address"
        },
        {
          "internalType": "address",
          "name": "_player",
          "type": "address"
        }
      ],
      "stateMutability": "nonpayable",
      "type": "constructor"
    },
    {
      "inputs": [],
      "name": "buildingsContract",
      "outputs": [
        {
          "internalType": "contract Buildings",
          "name": "",
          "type": "address"
        }
      ],
      "stateMutability": "view",
      "type": "function"
    },
    {
      "inputs": [],
      "name": "equipmentContract",
      "outputs": [
        {
          "internalType": "contract Equipment",
          "name": "",
          "type": "address"
        }
      ],
      "stateMutability": "view",
      "type": "function"
    },
    {
      "inputs": [],
      "name": "nextTurn",
      "outputs": [],
      "stateMutability": "nonpayable",
      "type": "function"
    },
    {
      "inputs": [],
      "name": "player",
      "outputs": [
        {
          "internalType": "address",
          "name": "",
          "type": "address"
        }
      ],
      "stateMutability": "view",
      "type": "function"
    },
    {
      "inputs": [],
      "name": "resourcesContract",
      "outputs": [
        {
          "internalType": "contract Resources",
          "name": "",
          "type": "address"
        }
      ],
      "stateMutability": "view",
      "type": "function"
    },
    {
      "inputs": [],
      "name": "turn",
      "outputs": [
        {
          "internalType": "uint256",
          "name": "",
          "type": "uint256"
        }
      ],
      "stateMutability": "view",
      "type": "function"
    }
  ],
  "bytecode": "0x608060405234801561001057600080fd5b506040516103fe3803806103fe83398101604081905261002f9161021b565b600280546001600160a01b038087166001600160a01b0319928316179092556003805486841690831617905560048054858416908316179055600080549284169290911691909117815560015561008461008d565b50505050610288565b600254604051633aa39ff160e01b8152306004820152600160248201819052606460448301819052909290916001600160a01b0390911690633aa39ff19083016020604051808303816000875af11580156100ec573d6000803e3d6000fd5b505050506040513d601f19601f82011682018060405250810190610110919061026f565b50600480546040516324b155f560e11b81523092810192909252600160248301819052600560448401819052909290916001600160a01b031690634962abea90606401600060405180830381600087803b15801561016d57600080fd5b505af1158015610181573d6000803e3d6000fd5b5050600354604051637aa4114b60e11b815230600482015260016024820181905260056044830181905290945092506001600160a01b039091169063f548229690606401600060405180830381600087803b1580156101df57600080fd5b505af11580156101f3573d6000803e3d6000fd5b50505050505050505050565b80516001600160a01b038116811461021657600080fd5b919050565b6000806000806080858703121561023157600080fd5b61023a856101ff565b9350610248602086016101ff565b9250610256604086016101ff565b9150610264606086016101ff565b905092959194509250565b60006020828403121561028157600080fd5b5051919050565b610167806102976000396000f3fe608060405234801561001057600080fd5b50600436106100625760003560e01c8063119f0ef8146100675780631ba5eec01461009757806348db5f89146100a15780638b299903146100b4578063a8b68376146100cb578063d53ae2ff146100de575b600080fd5b60045461007a906001600160a01b031681565b6040516001600160a01b0390911681526020015b60405180910390f35b61009f6100f1565b005b60005461007a906001600160a01b031681565b6100bd60015481565b60405190815260200161008e565b60035461007a906001600160a01b031681565b60025461007a906001600160a01b031681565b6001806000828254610103919061010a565b9091555050565b8082018082111561012b57634e487b7160e01b600052601160045260246000fd5b9291505056fea2646970667358221220b1c2b3be03bfb76497da03f0048b6cb169cfdbc2eb1ab549c931b308aaedb6dd64736f6c63430008120033",
  "linkReferences": {},
  "deployedLinkReferences": {}
}