{
  "_format": "hh-sol-artifact-1",
  "contractName": "Buildings",
  "sourceName": "contracts/Buildings.sol",
  "abi": [
    {
      "inputs": [],
      "stateMutability": "nonpayable",
      "type": "constructor"
    },
    {
      "anonymous": false,
      "inputs": [
        {
          "indexed": true,
          "internalType": "address",
          "name": "account",
          "type": "address"
        },
        {
          "indexed": true,
          "internalType": "address",
          "name": "operator",
          "type": "address"
        },
        {
          "indexed": false,
          "internalType": "bool",
          "name": "approved",
          "type": "bool"
        }
      ],
      "name": "ApprovalForAll",
      "type": "event"
    },
    {
      "anonymous": false,
      "inputs": [
        {
          "indexed": true,
          "internalType": "address",
          "name": "operator",
          "type": "address"
        },
        {
          "indexed": true,
          "internalType": "address",
          "name": "from",
          "type": "address"
        },
        {
          "indexed": true,
          "internalType": "address",
          "name": "to",
          "type": "address"
        },
        {
          "indexed": false,
          "internalType": "uint256[]",
          "name": "ids",
          "type": "uint256[]"
        },
        {
          "indexed": false,
          "internalType": "uint256[]",
          "name": "values",
          "type": "uint256[]"
        }
      ],
      "name": "TransferBatch",
      "type": "event"
    },
    {
      "anonymous": false,
      "inputs": [
        {
          "indexed": true,
          "internalType": "address",
          "name": "operator",
          "type": "address"
        },
        {
          "indexed": true,
          "internalType": "address",
          "name": "from",
          "type": "address"
        },
        {
          "indexed": true,
          "internalType": "address",
          "name": "to",
          "type": "address"
        },
        {
          "indexed": false,
          "internalType": "uint256",
          "name": "id",
          "type": "uint256"
        },
        {
          "indexed": false,
          "internalType": "uint256",
          "name": "value",
          "type": "uint256"
        }
      ],
      "name": "TransferSingle",
      "type": "event"
    },
    {
      "anonymous": false,
      "inputs": [
        {
          "indexed": false,
          "internalType": "string",
          "name": "value",
          "type": "string"
        },
        {
          "indexed": true,
          "internalType": "uint256",
          "name": "id",
          "type": "uint256"
        }
      ],
      "name": "URI",
      "type": "event"
    },
    {
      "inputs": [
        {
          "internalType": "address",
          "name": "account",
          "type": "address"
        },
        {
          "internalType": "uint256",
          "name": "id",
          "type": "uint256"
        }
      ],
      "name": "balanceOf",
      "outputs": [
        {
          "internalType": "uint256",
          "name": "",
          "type": "uint256"
        }
      ],
      "stateMutability": "view",
      "type": "function"
    },
    {
      "inputs": [
        {
          "internalType": "address[]",
          "name": "accounts",
          "type": "address[]"
        },
        {
          "internalType": "uint256[]",
          "name": "ids",
          "type": "uint256[]"
        }
      ],
      "name": "balanceOfBatch",
      "outputs": [
        {
          "internalType": "uint256[]",
          "name": "",
          "type": "uint256[]"
        }
      ],
      "stateMutability": "view",
      "type": "function"
    },
    {
      "inputs": [
        {
          "internalType": "uint256",
          "name": "",
          "type": "uint256"
        }
      ],
      "name": "buildings",
      "outputs": [
        {
          "internalType": "uint256",
          "name": "id",
          "type": "uint256"
        },
        {
          "internalType": "uint256",
          "name": "requirement",
          "type": "uint256"
        },
        {
          "internalType": "uint256",
          "name": "mintAmount",
          "type": "uint256"
        },
        {
          "internalType": "uint256",
          "name": "sustainability",
          "type": "uint256"
        },
        {
          "internalType": "uint256",
          "name": "development",
          "type": "uint256"
        },
        {
          "internalType": "uint256",
          "name": "population",
          "type": "uint256"
        },
        {
          "internalType": "uint256",
          "name": "turnsToLive",
          "type": "uint256"
        },
        {
          "internalType": "address",
          "name": "originContract",
          "type": "address"
        }
      ],
      "stateMutability": "view",
      "type": "function"
    },
    {
      "inputs": [
        {
          "internalType": "address",
          "name": "account",
          "type": "address"
        },
        {
          "internalType": "address",
          "name": "operator",
          "type": "address"
        }
      ],
      "name": "isApprovedForAll",
      "outputs": [
        {
          "internalType": "bool",
          "name": "",
          "type": "bool"
        }
      ],
      "stateMutability": "view",
      "type": "function"
    },
    {
      "inputs": [
        {
          "internalType": "address",
          "name": "gameAddress",
          "type": "address"
        },
        {
          "internalType": "uint256",
          "name": "tokenId",
          "type": "uint256"
        },
        {
          "internalType": "uint256",
          "name": "amount",
          "type": "uint256"
        }
      ],
      "name": "mintBuilding",
      "outputs": [],
      "stateMutability": "nonpayable",
      "type": "function"
    },
    {
      "inputs": [
        {
          "internalType": "address",
          "name": "from",
          "type": "address"
        },
        {
          "internalType": "address",
          "name": "to",
          "type": "address"
        },
        {
          "internalType": "uint256[]",
          "name": "ids",
          "type": "uint256[]"
        },
        {
          "internalType": "uint256[]",
          "name": "amounts",
          "type": "uint256[]"
        },
        {
          "internalType": "bytes",
          "name": "data",
          "type": "bytes"
        }
      ],
      "name": "safeBatchTransferFrom",
      "outputs": [],
      "stateMutability": "nonpayable",
      "type": "function"
    },
    {
      "inputs": [
        {
          "internalType": "address",
          "name": "from",
          "type": "address"
        },
        {
          "internalType": "address",
          "name": "to",
          "type": "address"
        },
        {
          "internalType": "uint256",
          "name": "id",
          "type": "uint256"
        },
        {
          "internalType": "uint256",
          "name": "amount",
          "type": "uint256"
        },
        {
          "internalType": "bytes",
          "name": "data",
          "type": "bytes"
        }
      ],
      "name": "safeTransferFrom",
      "outputs": [],
      "stateMutability": "nonpayable",
      "type": "function"
    },
    {
      "inputs": [
        {
          "internalType": "address",
          "name": "operator",
          "type": "address"
        },
        {
          "internalType": "bool",
          "name": "approved",
          "type": "bool"
        }
      ],
      "name": "setApprovalForAll",
      "outputs": [],
      "stateMutability": "nonpayable",
      "type": "function"
    },
    {
      "inputs": [
        {
          "internalType": "bytes4",
          "name": "interfaceId",
          "type": "bytes4"
        }
      ],
      "name": "supportsInterface",
      "outputs": [
        {
          "internalType": "bool",
          "name": "",
          "type": "bool"
        }
      ],
      "stateMutability": "view",
      "type": "function"
    },
    {
      "inputs": [
        {
          "internalType": "uint256",
          "name": "",
          "type": "uint256"
        }
      ],
      "name": "uri",
      "outputs": [
        {
          "internalType": "string",
          "name": "",
          "type": "string"
        }
      ],
      "stateMutability": "view",
      "type": "function"
    }
  ],
  "bytecode": "0x60806040523480156200001157600080fd5b506040805160208101909152600081526200002c8162000033565b50620001b6565b6002620000418282620000ea565b5050565b634e487b7160e01b600052604160045260246000fd5b600181811c908216806200007057607f821691505b6020821081036200009157634e487b7160e01b600052602260045260246000fd5b50919050565b601f821115620000e557600081815260208120601f850160051c81016020861015620000c05750805b601f850160051c820191505b81811015620000e157828155600101620000cc565b5050505b505050565b81516001600160401b0381111562000106576200010662000045565b6200011e816200011784546200005b565b8462000097565b602080601f8311600181146200015657600084156200013d5750858301515b600019600386901b1c1916600185901b178555620000e1565b600085815260208120601f198616915b82811015620001875788860151825594840194600190910190840162000166565b5085821015620001a65787850151600019600388901b60f8161c191681555b5050505050600190811b01905550565b6115a280620001c66000396000f3fe608060405234801561001057600080fd5b506004361061009d5760003560e01c80634e1273f4116100665780634e1273f4146101be578063a22cb465146101de578063e985e9c5146101f1578063f242432a1461022d578063f54822961461024057600080fd5b8062fdd58e146100a257806301ffc9a7146100c85780630e89341c146100eb5780632eb2c2d61461010b5780634c96a06214610120575b600080fd5b6100b56100b0366004610d32565b610253565b6040519081526020015b60405180910390f35b6100db6100d6366004610d75565b6102ec565b60405190151581526020016100bf565b6100fe6100f9366004610d99565b61033c565b6040516100bf9190610df8565b61011e610119366004610f57565b6103d0565b005b61017a61012e366004610d99565b600460208190526000918252604090912080546001820154600283015460038401549484015460058501546006860154600790960154949693959294919290916001600160a01b031688565b604080519889526020890197909752958701949094526060860192909252608085015260a084015260c08301526001600160a01b031660e0820152610100016100bf565b6101d16101cc366004611001565b61041c565b6040516100bf9190611107565b61011e6101ec36600461111a565b610546565b6100db6101ff366004611156565b6001600160a01b03918216600090815260016020908152604080832093909416825291909152205460ff1690565b61011e61023b366004611189565b610555565b61011e61024e3660046111ee565b61059a565b60006001600160a01b0383166102c35760405162461bcd60e51b815260206004820152602a60248201527f455243313135353a2061646472657373207a65726f206973206e6f742061207660448201526930b634b21037bbb732b960b11b60648201526084015b60405180910390fd5b506000818152602081815260408083206001600160a01b03861684529091529020545b92915050565b60006001600160e01b03198216636cdb3d1360e11b148061031d57506001600160e01b031982166303a24d0760e21b145b806102e657506301ffc9a760e01b6001600160e01b03198316146102e6565b60606002805461034b90611221565b80601f016020809104026020016040519081016040528092919081815260200182805461037790611221565b80156103c45780601f10610399576101008083540402835291602001916103c4565b820191906000526020600020905b8154815290600101906020018083116103a757829003601f168201915b50505050509050919050565b6001600160a01b0385163314806103ec57506103ec85336101ff565b6104085760405162461bcd60e51b81526004016102ba9061125b565b61041585858585856105ba565b5050505050565b606081518351146104815760405162461bcd60e51b815260206004820152602960248201527f455243313135353a206163636f756e747320616e6420696473206c656e677468604482015268040dad2e6dac2e8c6d60bb1b60648201526084016102ba565b6000835167ffffffffffffffff81111561049d5761049d610e0b565b6040519080825280602002602001820160405280156104c6578160200160208202803683370190505b50905060005b845181101561053e576105118582815181106104ea576104ea6112a9565b6020026020010151858381518110610504576105046112a9565b6020026020010151610253565b828281518110610523576105236112a9565b6020908102919091010152610537816112d5565b90506104cc565b509392505050565b610551338383610797565b5050565b6001600160a01b038516331480610571575061057185336101ff565b61058d5760405162461bcd60e51b81526004016102ba9061125b565b6104158585858585610877565b6105b5838383604051806020016040528060008152506109a1565b505050565b815183511461061c5760405162461bcd60e51b815260206004820152602860248201527f455243313135353a2069647320616e6420616d6f756e7473206c656e677468206044820152670dad2e6dac2e8c6d60c31b60648201526084016102ba565b6001600160a01b0384166106425760405162461bcd60e51b81526004016102ba906112ee565b3360005b8451811015610729576000858281518110610663576106636112a9565b602002602001015190506000858381518110610681576106816112a9565b602090810291909101810151600084815280835260408082206001600160a01b038e1683529093529190912054909150818110156106d15760405162461bcd60e51b81526004016102ba90611333565b6000838152602081815260408083206001600160a01b038e8116855292528083208585039055908b1682528120805484929061070e90849061137d565b9250508190555050505080610722906112d5565b9050610646565b50846001600160a01b0316866001600160a01b0316826001600160a01b03167f4a39dc06d4c0dbc64b70af90fd698a233a518aa5d07e595d983b8c0526c8f7fb8787604051610779929190611390565b60405180910390a461078f818787878787610ab5565b505050505050565b816001600160a01b0316836001600160a01b03160361080a5760405162461bcd60e51b815260206004820152602960248201527f455243313135353a2073657474696e6720617070726f76616c20737461747573604482015268103337b91039b2b63360b91b60648201526084016102ba565b6001600160a01b03838116600081815260016020908152604080832094871680845294825291829020805460ff191686151590811790915591519182527f17307eab39ab6107e8899845ad3d59bd9653f200f220920489ca2b5937696c31910160405180910390a3505050565b6001600160a01b03841661089d5760405162461bcd60e51b81526004016102ba906112ee565b3360006108a985610c10565b905060006108b685610c10565b90506000868152602081815260408083206001600160a01b038c168452909152902054858110156108f95760405162461bcd60e51b81526004016102ba90611333565b6000878152602081815260408083206001600160a01b038d8116855292528083208985039055908a1682528120805488929061093690849061137d565b909155505060408051888152602081018890526001600160a01b03808b16928c821692918816917fc3d58168c5ae7397731d063d5bbf3d657854427343f4c083240f7aacaa2d0f62910160405180910390a4610996848a8a8a8a8a610c5b565b505050505050505050565b6001600160a01b038416610a015760405162461bcd60e51b815260206004820152602160248201527f455243313135353a206d696e7420746f20746865207a65726f206164647265736044820152607360f81b60648201526084016102ba565b336000610a0d85610c10565b90506000610a1a85610c10565b90506000868152602081815260408083206001600160a01b038b16845290915281208054879290610a4c90849061137d565b909155505060408051878152602081018790526001600160a01b03808a1692600092918716917fc3d58168c5ae7397731d063d5bbf3d657854427343f4c083240f7aacaa2d0f62910160405180910390a4610aac83600089898989610c5b565b50505050505050565b6001600160a01b0384163b1561078f5760405163bc197c8160e01b81526001600160a01b0385169063bc197c8190610af990899089908890889088906004016113be565b6020604051808303816000875af1925050508015610b34575060408051601f3d908101601f19168201909252610b319181019061141c565b60015b610be057610b40611439565b806308c379a003610b795750610b54611455565b80610b5f5750610b7b565b8060405162461bcd60e51b81526004016102ba9190610df8565b505b60405162461bcd60e51b815260206004820152603460248201527f455243313135353a207472616e7366657220746f206e6f6e2d455243313135356044820152732932b1b2b4bb32b91034b6b83632b6b2b73a32b960611b60648201526084016102ba565b6001600160e01b0319811663bc197c8160e01b14610aac5760405162461bcd60e51b81526004016102ba906114df565b60408051600180825281830190925260609160009190602080830190803683370190505090508281600081518110610c4a57610c4a6112a9565b602090810291909101015292915050565b6001600160a01b0384163b1561078f5760405163f23a6e6160e01b81526001600160a01b0385169063f23a6e6190610c9f9089908990889088908890600401611527565b6020604051808303816000875af1925050508015610cda575060408051601f3d908101601f19168201909252610cd79181019061141c565b60015b610ce657610b40611439565b6001600160e01b0319811663f23a6e6160e01b14610aac5760405162461bcd60e51b81526004016102ba906114df565b80356001600160a01b0381168114610d2d57600080fd5b919050565b60008060408385031215610d4557600080fd5b610d4e83610d16565b946020939093013593505050565b6001600160e01b031981168114610d7257600080fd5b50565b600060208284031215610d8757600080fd5b8135610d9281610d5c565b9392505050565b600060208284031215610dab57600080fd5b5035919050565b6000815180845260005b81811015610dd857602081850181015186830182015201610dbc565b506000602082860101526020601f19601f83011685010191505092915050565b602081526000610d926020830184610db2565b634e487b7160e01b600052604160045260246000fd5b601f8201601f1916810167ffffffffffffffff81118282101715610e4757610e47610e0b565b6040525050565b600067ffffffffffffffff821115610e6857610e68610e0b565b5060051b60200190565b600082601f830112610e8357600080fd5b81356020610e9082610e4e565b604051610e9d8282610e21565b83815260059390931b8501820192828101915086841115610ebd57600080fd5b8286015b84811015610ed85780358352918301918301610ec1565b509695505050505050565b600082601f830112610ef457600080fd5b813567ffffffffffffffff811115610f0e57610f0e610e0b565b604051610f25601f8301601f191660200182610e21565b818152846020838601011115610f3a57600080fd5b816020850160208301376000918101602001919091529392505050565b600080600080600060a08688031215610f6f57600080fd5b610f7886610d16565b9450610f8660208701610d16565b9350604086013567ffffffffffffffff80821115610fa357600080fd5b610faf89838a01610e72565b94506060880135915080821115610fc557600080fd5b610fd189838a01610e72565b93506080880135915080821115610fe757600080fd5b50610ff488828901610ee3565b9150509295509295909350565b6000806040838503121561101457600080fd5b823567ffffffffffffffff8082111561102c57600080fd5b818501915085601f83011261104057600080fd5b8135602061104d82610e4e565b60405161105a8282610e21565b83815260059390931b850182019282810191508984111561107a57600080fd5b948201945b8386101561109f5761109086610d16565b8252948201949082019061107f565b965050860135925050808211156110b557600080fd5b506110c285828601610e72565b9150509250929050565b600081518084526020808501945080840160005b838110156110fc578151875295820195908201906001016110e0565b509495945050505050565b602081526000610d9260208301846110cc565b6000806040838503121561112d57600080fd5b61113683610d16565b91506020830135801515811461114b57600080fd5b809150509250929050565b6000806040838503121561116957600080fd5b61117283610d16565b915061118060208401610d16565b90509250929050565b600080600080600060a086880312156111a157600080fd5b6111aa86610d16565b94506111b860208701610d16565b93506040860135925060608601359150608086013567ffffffffffffffff8111156111e257600080fd5b610ff488828901610ee3565b60008060006060848603121561120357600080fd5b61120c84610d16565b95602085013595506040909401359392505050565b600181811c9082168061123557607f821691505b60208210810361125557634e487b7160e01b600052602260045260246000fd5b50919050565b6020808252602e908201527f455243313135353a2063616c6c6572206973206e6f7420746f6b656e206f776e60408201526d195c881bdc88185c1c1c9bdd995960921b606082015260800190565b634e487b7160e01b600052603260045260246000fd5b634e487b7160e01b600052601160045260246000fd5b6000600182016112e7576112e76112bf565b5060010190565b60208082526025908201527f455243313135353a207472616e7366657220746f20746865207a65726f206164604082015264647265737360d81b606082015260800190565b6020808252602a908201527f455243313135353a20696e73756666696369656e742062616c616e636520666f60408201526939103a3930b739b332b960b11b606082015260800190565b808201808211156102e6576102e66112bf565b6040815260006113a360408301856110cc565b82810360208401526113b581856110cc565b95945050505050565b6001600160a01b0386811682528516602082015260a0604082018190526000906113ea908301866110cc565b82810360608401526113fc81866110cc565b905082810360808401526114108185610db2565b98975050505050505050565b60006020828403121561142e57600080fd5b8151610d9281610d5c565b600060033d11156114525760046000803e5060005160e01c5b90565b600060443d10156114635790565b6040516003193d81016004833e81513d67ffffffffffffffff816024840111818411171561149357505050505090565b82850191508151818111156114ab5750505050505090565b843d87010160208285010111156114c55750505050505090565b6114d460208286010187610e21565b509095945050505050565b60208082526028908201527f455243313135353a204552433131353552656365697665722072656a656374656040820152676420746f6b656e7360c01b606082015260800190565b6001600160a01b03868116825285166020820152604081018490526060810183905260a06080820181905260009061156190830184610db2565b97965050505050505056fea26469706673582212200508050c0230061501ff1304ba1c27ea759cd63a0d61200035449251d84c031c64736f6c63430008120033",
  "linkReferences": {},
  "deployedLinkReferences": {}
}