{
  "_format": "hh-sol-artifact-1",
  "contractName": "Equipment",
  "sourceName": "contracts/Equipment.sol",
  "abi": [
    {
      "inputs": [],
      "stateMutability": "nonpayable",
      "type": "constructor"
    },
    {
      "anonymous": false,
      "inputs": [
        {
          "indexed": true,
          "internalType": "address",
          "name": "account",
          "type": "address"
        },
        {
          "indexed": true,
          "internalType": "address",
          "name": "operator",
          "type": "address"
        },
        {
          "indexed": false,
          "internalType": "bool",
          "name": "approved",
          "type": "bool"
        }
      ],
      "name": "ApprovalForAll",
      "type": "event"
    },
    {
      "anonymous": false,
      "inputs": [
        {
          "indexed": true,
          "internalType": "address",
          "name": "operator",
          "type": "address"
        },
        {
          "indexed": true,
          "internalType": "address",
          "name": "from",
          "type": "address"
        },
        {
          "indexed": true,
          "internalType": "address",
          "name": "to",
          "type": "address"
        },
        {
          "indexed": false,
          "internalType": "uint256[]",
          "name": "ids",
          "type": "uint256[]"
        },
        {
          "indexed": false,
          "internalType": "uint256[]",
          "name": "values",
          "type": "uint256[]"
        }
      ],
      "name": "TransferBatch",
      "type": "event"
    },
    {
      "anonymous": false,
      "inputs": [
        {
          "indexed": true,
          "internalType": "address",
          "name": "operator",
          "type": "address"
        },
        {
          "indexed": true,
          "internalType": "address",
          "name": "from",
          "type": "address"
        },
        {
          "indexed": true,
          "internalType": "address",
          "name": "to",
          "type": "address"
        },
        {
          "indexed": false,
          "internalType": "uint256",
          "name": "id",
          "type": "uint256"
        },
        {
          "indexed": false,
          "internalType": "uint256",
          "name": "value",
          "type": "uint256"
        }
      ],
      "name": "TransferSingle",
      "type": "event"
    },
    {
      "anonymous": false,
      "inputs": [
        {
          "indexed": false,
          "internalType": "string",
          "name": "value",
          "type": "string"
        },
        {
          "indexed": true,
          "internalType": "uint256",
          "name": "id",
          "type": "uint256"
        }
      ],
      "name": "URI",
      "type": "event"
    },
    {
      "inputs": [
        {
          "internalType": "address",
          "name": "account",
          "type": "address"
        },
        {
          "internalType": "uint256",
          "name": "id",
          "type": "uint256"
        }
      ],
      "name": "balanceOf",
      "outputs": [
        {
          "internalType": "uint256",
          "name": "",
          "type": "uint256"
        }
      ],
      "stateMutability": "view",
      "type": "function"
    },
    {
      "inputs": [
        {
          "internalType": "address[]",
          "name": "accounts",
          "type": "address[]"
        },
        {
          "internalType": "uint256[]",
          "name": "ids",
          "type": "uint256[]"
        }
      ],
      "name": "balanceOfBatch",
      "outputs": [
        {
          "internalType": "uint256[]",
          "name": "",
          "type": "uint256[]"
        }
      ],
      "stateMutability": "view",
      "type": "function"
    },
    {
      "inputs": [
        {
          "internalType": "uint256",
          "name": "",
          "type": "uint256"
        }
      ],
      "name": "equipmentItems",
      "outputs": [
        {
          "internalType": "uint256",
          "name": "id",
          "type": "uint256"
        },
        {
          "internalType": "uint256",
          "name": "sustainability",
          "type": "uint256"
        },
        {
          "internalType": "uint256",
          "name": "turnsToLive",
          "type": "uint256"
        },
        {
          "internalType": "address",
          "name": "originContract",
          "type": "address"
        }
      ],
      "stateMutability": "view",
      "type": "function"
    },
    {
      "inputs": [
        {
          "internalType": "address",
          "name": "account",
          "type": "address"
        },
        {
          "internalType": "address",
          "name": "operator",
          "type": "address"
        }
      ],
      "name": "isApprovedForAll",
      "outputs": [
        {
          "internalType": "bool",
          "name": "",
          "type": "bool"
        }
      ],
      "stateMutability": "view",
      "type": "function"
    },
    {
      "inputs": [
        {
          "internalType": "address",
          "name": "gameAddress",
          "type": "address"
        },
        {
          "internalType": "uint256",
          "name": "tokenId",
          "type": "uint256"
        },
        {
          "internalType": "uint256",
          "name": "amount",
          "type": "uint256"
        }
      ],
      "name": "mintEquipment",
      "outputs": [],
      "stateMutability": "nonpayable",
      "type": "function"
    },
    {
      "inputs": [
        {
          "internalType": "address",
          "name": "from",
          "type": "address"
        },
        {
          "internalType": "address",
          "name": "to",
          "type": "address"
        },
        {
          "internalType": "uint256[]",
          "name": "ids",
          "type": "uint256[]"
        },
        {
          "internalType": "uint256[]",
          "name": "amounts",
          "type": "uint256[]"
        },
        {
          "internalType": "bytes",
          "name": "data",
          "type": "bytes"
        }
      ],
      "name": "safeBatchTransferFrom",
      "outputs": [],
      "stateMutability": "nonpayable",
      "type": "function"
    },
    {
      "inputs": [
        {
          "internalType": "address",
          "name": "from",
          "type": "address"
        },
        {
          "internalType": "address",
          "name": "to",
          "type": "address"
        },
        {
          "internalType": "uint256",
          "name": "id",
          "type": "uint256"
        },
        {
          "internalType": "uint256",
          "name": "amount",
          "type": "uint256"
        },
        {
          "internalType": "bytes",
          "name": "data",
          "type": "bytes"
        }
      ],
      "name": "safeTransferFrom",
      "outputs": [],
      "stateMutability": "nonpayable",
      "type": "function"
    },
    {
      "inputs": [
        {
          "internalType": "address",
          "name": "operator",
          "type": "address"
        },
        {
          "internalType": "bool",
          "name": "approved",
          "type": "bool"
        }
      ],
      "name": "setApprovalForAll",
      "outputs": [],
      "stateMutability": "nonpayable",
      "type": "function"
    },
    {
      "inputs": [
        {
          "internalType": "bytes4",
          "name": "interfaceId",
          "type": "bytes4"
        }
      ],
      "name": "supportsInterface",
      "outputs": [
        {
          "internalType": "bool",
          "name": "",
          "type": "bool"
        }
      ],
      "stateMutability": "view",
      "type": "function"
    },
    {
      "inputs": [
        {
          "internalType": "uint256",
          "name": "",
          "type": "uint256"
        }
      ],
      "name": "uri",
      "outputs": [
        {
          "internalType": "string",
          "name": "",
          "type": "string"
        }
      ],
      "stateMutability": "view",
      "type": "function"
    }
  ],
  "bytecode": "0x60806040523480156200001157600080fd5b50604080518082019091526009815268115c5d5a5c1b595b9d60ba1b60208201526200003d8162000044565b50620001c7565b6002620000528282620000fb565b5050565b634e487b7160e01b600052604160045260246000fd5b600181811c908216806200008157607f821691505b602082108103620000a257634e487b7160e01b600052602260045260246000fd5b50919050565b601f821115620000f657600081815260208120601f850160051c81016020861015620000d15750805b601f850160051c820191505b81811015620000f257828155600101620000dd565b5050505b505050565b81516001600160401b0381111562000117576200011762000056565b6200012f816200012884546200006c565b84620000a8565b602080601f8311600181146200016757600084156200014e5750858301515b600019600386901b1c1916600185901b178555620000f2565b600085815260208120601f198616915b82811015620001985788860151825594840194600190910190840162000177565b5085821015620001b75787850151600019600388901b60f8161c191681555b5050505050600190811b01905550565b61156b80620001d76000396000f3fe608060405234801561001057600080fd5b506004361061009d5760003560e01c80634e1273f4116100665780634e1273f414610133578063a22cb46514610153578063d0a0110b14610166578063e985e9c5146101cd578063f242432a1461020957600080fd5b8062fdd58e146100a257806301ffc9a7146100c85780630e89341c146100eb5780632eb2c2d61461010b5780634962abea14610120575b600080fd5b6100b56100b0366004610cfb565b61021c565b6040519081526020015b60405180910390f35b6100db6100d6366004610d3e565b6102b5565b60405190151581526020016100bf565b6100fe6100f9366004610d62565b610305565b6040516100bf9190610dc1565b61011e610119366004610f20565b610399565b005b61011e61012e366004610fca565b6103e5565b610146610141366004610ffd565b610405565b6040516100bf9190611103565b61011e610161366004611116565b61052f565b6101a4610174366004610d62565b6004602052600090815260409020805460018201546002830154600390930154919290916001600160a01b031684565b604080519485526020850193909352918301526001600160a01b031660608201526080016100bf565b6100db6101db366004611152565b6001600160a01b03918216600090815260016020908152604080832093909416825291909152205460ff1690565b61011e610217366004611185565b61053e565b60006001600160a01b03831661028c5760405162461bcd60e51b815260206004820152602a60248201527f455243313135353a2061646472657373207a65726f206973206e6f742061207660448201526930b634b21037bbb732b960b11b60648201526084015b60405180910390fd5b506000818152602081815260408083206001600160a01b03861684529091529020545b92915050565b60006001600160e01b03198216636cdb3d1360e11b14806102e657506001600160e01b031982166303a24d0760e21b145b806102af57506301ffc9a760e01b6001600160e01b03198316146102af565b606060028054610314906111ea565b80601f0160208091040260200160405190810160405280929190818152602001828054610340906111ea565b801561038d5780601f106103625761010080835404028352916020019161038d565b820191906000526020600020905b81548152906001019060200180831161037057829003601f168201915b50505050509050919050565b6001600160a01b0385163314806103b557506103b585336101db565b6103d15760405162461bcd60e51b815260040161028390611224565b6103de8585858585610583565b5050505050565b61040083838360405180602001604052806000815250610760565b505050565b6060815183511461046a5760405162461bcd60e51b815260206004820152602960248201527f455243313135353a206163636f756e747320616e6420696473206c656e677468604482015268040dad2e6dac2e8c6d60bb1b6064820152608401610283565b6000835167ffffffffffffffff81111561048657610486610dd4565b6040519080825280602002602001820160405280156104af578160200160208202803683370190505b50905060005b8451811015610527576104fa8582815181106104d3576104d3611272565b60200260200101518583815181106104ed576104ed611272565b602002602001015161021c565b82828151811061050c5761050c611272565b60209081029190910101526105208161129e565b90506104b5565b509392505050565b61053a338383610874565b5050565b6001600160a01b03851633148061055a575061055a85336101db565b6105765760405162461bcd60e51b815260040161028390611224565b6103de8585858585610954565b81518351146105e55760405162461bcd60e51b815260206004820152602860248201527f455243313135353a2069647320616e6420616d6f756e7473206c656e677468206044820152670dad2e6dac2e8c6d60c31b6064820152608401610283565b6001600160a01b03841661060b5760405162461bcd60e51b8152600401610283906112b7565b3360005b84518110156106f257600085828151811061062c5761062c611272565b60200260200101519050600085838151811061064a5761064a611272565b602090810291909101810151600084815280835260408082206001600160a01b038e16835290935291909120549091508181101561069a5760405162461bcd60e51b8152600401610283906112fc565b6000838152602081815260408083206001600160a01b038e8116855292528083208585039055908b168252812080548492906106d7908490611346565b92505081905550505050806106eb9061129e565b905061060f565b50846001600160a01b0316866001600160a01b0316826001600160a01b03167f4a39dc06d4c0dbc64b70af90fd698a233a518aa5d07e595d983b8c0526c8f7fb8787604051610742929190611359565b60405180910390a4610758818787878787610a7e565b505050505050565b6001600160a01b0384166107c05760405162461bcd60e51b815260206004820152602160248201527f455243313135353a206d696e7420746f20746865207a65726f206164647265736044820152607360f81b6064820152608401610283565b3360006107cc85610bd9565b905060006107d985610bd9565b90506000868152602081815260408083206001600160a01b038b1684529091528120805487929061080b908490611346565b909155505060408051878152602081018790526001600160a01b03808a1692600092918716917fc3d58168c5ae7397731d063d5bbf3d657854427343f4c083240f7aacaa2d0f62910160405180910390a461086b83600089898989610c24565b50505050505050565b816001600160a01b0316836001600160a01b0316036108e75760405162461bcd60e51b815260206004820152602960248201527f455243313135353a2073657474696e6720617070726f76616c20737461747573604482015268103337b91039b2b63360b91b6064820152608401610283565b6001600160a01b03838116600081815260016020908152604080832094871680845294825291829020805460ff191686151590811790915591519182527f17307eab39ab6107e8899845ad3d59bd9653f200f220920489ca2b5937696c31910160405180910390a3505050565b6001600160a01b03841661097a5760405162461bcd60e51b8152600401610283906112b7565b33600061098685610bd9565b9050600061099385610bd9565b90506000868152602081815260408083206001600160a01b038c168452909152902054858110156109d65760405162461bcd60e51b8152600401610283906112fc565b6000878152602081815260408083206001600160a01b038d8116855292528083208985039055908a16825281208054889290610a13908490611346565b909155505060408051888152602081018890526001600160a01b03808b16928c821692918816917fc3d58168c5ae7397731d063d5bbf3d657854427343f4c083240f7aacaa2d0f62910160405180910390a4610a73848a8a8a8a8a610c24565b505050505050505050565b6001600160a01b0384163b156107585760405163bc197c8160e01b81526001600160a01b0385169063bc197c8190610ac29089908990889088908890600401611387565b6020604051808303816000875af1925050508015610afd575060408051601f3d908101601f19168201909252610afa918101906113e5565b60015b610ba957610b09611402565b806308c379a003610b425750610b1d61141e565b80610b285750610b44565b8060405162461bcd60e51b81526004016102839190610dc1565b505b60405162461bcd60e51b815260206004820152603460248201527f455243313135353a207472616e7366657220746f206e6f6e2d455243313135356044820152732932b1b2b4bb32b91034b6b83632b6b2b73a32b960611b6064820152608401610283565b6001600160e01b0319811663bc197c8160e01b1461086b5760405162461bcd60e51b8152600401610283906114a8565b60408051600180825281830190925260609160009190602080830190803683370190505090508281600081518110610c1357610c13611272565b602090810291909101015292915050565b6001600160a01b0384163b156107585760405163f23a6e6160e01b81526001600160a01b0385169063f23a6e6190610c6890899089908890889088906004016114f0565b6020604051808303816000875af1925050508015610ca3575060408051601f3d908101601f19168201909252610ca0918101906113e5565b60015b610caf57610b09611402565b6001600160e01b0319811663f23a6e6160e01b1461086b5760405162461bcd60e51b8152600401610283906114a8565b80356001600160a01b0381168114610cf657600080fd5b919050565b60008060408385031215610d0e57600080fd5b610d1783610cdf565b946020939093013593505050565b6001600160e01b031981168114610d3b57600080fd5b50565b600060208284031215610d5057600080fd5b8135610d5b81610d25565b9392505050565b600060208284031215610d7457600080fd5b5035919050565b6000815180845260005b81811015610da157602081850181015186830182015201610d85565b506000602082860101526020601f19601f83011685010191505092915050565b602081526000610d5b6020830184610d7b565b634e487b7160e01b600052604160045260246000fd5b601f8201601f1916810167ffffffffffffffff81118282101715610e1057610e10610dd4565b6040525050565b600067ffffffffffffffff821115610e3157610e31610dd4565b5060051b60200190565b600082601f830112610e4c57600080fd5b81356020610e5982610e17565b604051610e668282610dea565b83815260059390931b8501820192828101915086841115610e8657600080fd5b8286015b84811015610ea15780358352918301918301610e8a565b509695505050505050565b600082601f830112610ebd57600080fd5b813567ffffffffffffffff811115610ed757610ed7610dd4565b604051610eee601f8301601f191660200182610dea565b818152846020838601011115610f0357600080fd5b816020850160208301376000918101602001919091529392505050565b600080600080600060a08688031215610f3857600080fd5b610f4186610cdf565b9450610f4f60208701610cdf565b9350604086013567ffffffffffffffff80821115610f6c57600080fd5b610f7889838a01610e3b565b94506060880135915080821115610f8e57600080fd5b610f9a89838a01610e3b565b93506080880135915080821115610fb057600080fd5b50610fbd88828901610eac565b9150509295509295909350565b600080600060608486031215610fdf57600080fd5b610fe884610cdf565b95602085013595506040909401359392505050565b6000806040838503121561101057600080fd5b823567ffffffffffffffff8082111561102857600080fd5b818501915085601f83011261103c57600080fd5b8135602061104982610e17565b6040516110568282610dea565b83815260059390931b850182019282810191508984111561107657600080fd5b948201945b8386101561109b5761108c86610cdf565b8252948201949082019061107b565b965050860135925050808211156110b157600080fd5b506110be85828601610e3b565b9150509250929050565b600081518084526020808501945080840160005b838110156110f8578151875295820195908201906001016110dc565b509495945050505050565b602081526000610d5b60208301846110c8565b6000806040838503121561112957600080fd5b61113283610cdf565b91506020830135801515811461114757600080fd5b809150509250929050565b6000806040838503121561116557600080fd5b61116e83610cdf565b915061117c60208401610cdf565b90509250929050565b600080600080600060a0868803121561119d57600080fd5b6111a686610cdf565b94506111b460208701610cdf565b93506040860135925060608601359150608086013567ffffffffffffffff8111156111de57600080fd5b610fbd88828901610eac565b600181811c908216806111fe57607f821691505b60208210810361121e57634e487b7160e01b600052602260045260246000fd5b50919050565b6020808252602e908201527f455243313135353a2063616c6c6572206973206e6f7420746f6b656e206f776e60408201526d195c881bdc88185c1c1c9bdd995960921b606082015260800190565b634e487b7160e01b600052603260045260246000fd5b634e487b7160e01b600052601160045260246000fd5b6000600182016112b0576112b0611288565b5060010190565b60208082526025908201527f455243313135353a207472616e7366657220746f20746865207a65726f206164604082015264647265737360d81b606082015260800190565b6020808252602a908201527f455243313135353a20696e73756666696369656e742062616c616e636520666f60408201526939103a3930b739b332b960b11b606082015260800190565b808201808211156102af576102af611288565b60408152600061136c60408301856110c8565b828103602084015261137e81856110c8565b95945050505050565b6001600160a01b0386811682528516602082015260a0604082018190526000906113b3908301866110c8565b82810360608401526113c581866110c8565b905082810360808401526113d98185610d7b565b98975050505050505050565b6000602082840312156113f757600080fd5b8151610d5b81610d25565b600060033d111561141b5760046000803e5060005160e01c5b90565b600060443d101561142c5790565b6040516003193d81016004833e81513d67ffffffffffffffff816024840111818411171561145c57505050505090565b82850191508151818111156114745750505050505090565b843d870101602082850101111561148e5750505050505090565b61149d60208286010187610dea565b509095945050505050565b60208082526028908201527f455243313135353a204552433131353552656365697665722072656a656374656040820152676420746f6b656e7360c01b606082015260800190565b6001600160a01b03868116825285166020820152604081018490526060810183905260a06080820181905260009061152a90830184610d7b565b97965050505050505056fea2646970667358221220d109ba996d383db6c6c281100e56ef5e498a6059067a101f065098145d30dc7364736f6c63430008120033",
  "linkReferences": {},
  "deployedLinkReferences": {}
}